:020000040800F2
:10000000080400204501000815030008AD0200089F
:10001000110300088D010008CD0600080000000053
:10002000000000000000000000000000E1030008E4
:1000300091010008000000009D030008CD040008A5
:100040005F0100085F0100085F0100085F01000810
:100050005F0100085F0100085F0100085F01000800
:100060005F0100085F0100085F0100085F010008F0
:100070005F0100085F0100085F0100085F010008E0
:100080005F0100085F0100085F0100085F010008D0
:100090005F0100085F0100085F0100085F010008C0
:1000A0005F0100085F0100085F0100085F010008B0
:1000B0005F0100085F0100085F0100085F010008A0
:1000C0005F0100085F0100085F0100085F01000890
:1000D0005F0100085F0100085F0100085F01000880
:1000E0005F0100085F0100085F0100085F01000870
:1000F0005F0100085F0100085F0100085F01000860
:100100005F0100085F0100085F0100085F0100084F
:100110005F0100085F010008310500085F01000869
:100120005F0100085F0100085F0100085F0100082F
:10013000DFF80CD000F018F800480047F10600087E
:10014000080400200648804706480047FEE7FEE70F
:10015000FEE7FEE7FEE7FEE7FEE7FEE7FEE7FEE777
:10016000D104000831010008064C074D06E0E068A4
:1001700040F0010394E8070098471034AC42F6D3EE
:10018000FFF7DAFF240700084407000800BFFEE776
:1001900070472DE9F041024600250026002000238B
:1001A0000024002791F803C00CF00F0591F803C05C
:1001B0000CF0100CBCF1000F03D091F802C04CEA17
:1001C000050591F800C0BCF1000F31D01468002083
:1001D0002BE04FF0010C0CFA00F3B1F800C00CEA70
:1001E00003069E4220D183004FF00F0C0CFA03F758
:1001F000BC4305FA03FC4CEA040491F803C0BCF1CB
:10020000280F06D14FF0010C0CFA00FCC2F814C004
:100210000AE091F803C0BCF1480F05D14FF0010C82
:100220000CFA00FCC2F810C0401C0828D1D314609E
:10023000B1F800C0BCF1FF0F34DD546800202EE09F
:1002400000F1080C4FF0010808FA0CF3B1F800C0F7
:100250000CEA03069E4221D183004FF00F0C0CFAEA
:1002600003F7BC4305FA03FC4CEA040491F803C00D
:10027000BCF1280F05D100F1080C08FA0CF8C2F8FF
:10028000148091F803C0BCF1480F07D100F1080CAD
:100290004FF0010808FA0CF8C2F81080401C08283A
:1002A000CED35460BDE8F0810161704700BFFEE726
:1002B00008B50121102000F083F810208DF803000C
:1002C00003208DF802000820ADF8000069460F48B1
:1002D000FFF75FFF1020ADF8000069460B48FFF7FD
:1002E00058FF2020ADF8000069460848FFF751FF8D
:1002F00008210648FFF7D8FF10210448FFF7D4FF74
:1003000020210248FFF7D0FF08BD00000010014087
:1003100000BFFEE77047000070B5002100230F22E8
:10032000C47804B3154C246804F4E064C4F5E064B4
:10033000210AC1F10403CA40447804FA03F1847825
:100340001440214309010E4C0678A155047804F0AD
:100350001F050124AC4005786D11AD0005F1E025C5
:10036000C5F8004109E0047804F01F050124AC4001
:10037000044D0678761145F8264070BD0CED00E07E
:1003800000E400E080E100E002490143024A11601C
:10039000704700000000FA050CED00E07047000017
:1003A00029B1064AD2690243044BDA6104E0034AE8
:1003B000D2698243014BDA617047000000100240AD
:1003C00029B1064A92690243044B9A6104E0034A48
:1003D00092698243014B9A6170470000001002400D
:1003E000704710B500F002F810BD00000CB50020F9
:1003F000019000903348006840F480303149086033
:1004000000BF3048006800F4003000900198401CA4
:100410000190009818B90198B0F5A06FF1D1294862
:10042000006800F4003010B10120009001E00020CD
:1004300000900098012843D12348006840F0100044
:10044000214908600846006820F00300086008465B
:10045000006840F0020008601A4840681949486086
:100460000846406848600846406840F4806048603C
:100470000846406820F47C1048600846406840F414
:10048000E81048600846006840F08070086000BFCF
:100490000C48006800F000700028F9D00948406856
:1004A00020F00300074948600846406840F0020019
:1004B000486000BF0348406800F00C000828F9D1EC
:1004C0000CBD0000001002400020024070470000F8
:1004D00010B51348006840F0010011490860084653
:1004E0004068104908400E494860084600680E49B7
:1004F00008400B4908600846006820F48020086026
:100500000846406820F4FE0048604FF41F008860F1
:10051000FFF767FF4FF000600449086010BD00005E
:10052000001002400000FFF8FFFFF6FE08ED00E0BB
:1005300010B50121064800F05CF840B1054800689C
:10054000401C044908600121014800F043F810BD37
:1005500000100040000000200EB501211020FFF720
:100560001FFF4720ADF800004FF47A70ADF804008B
:100570000020ADF80200ADF806008DF808006946CD
:10058000084800F051F80121064800F020F8012247
:100590001146044800F03EF80121024800F01DF821
:1005A0000EBD00000010004008B54FF4C060FFF71A
:1005B000EBFE36208DF8000001208DF801008DF84B
:1005C00002008DF803006846FFF7A6FE08BDCA4387
:1005D00002827047CA430282704721B1028842F00A
:1005E0000102028004E002884FF6FE731A40028086
:1005F000704730B50246002000230024158A05EA22
:100600000103958905EA010413B10CB1012000E052
:10061000002030BD1AB183890B43838102E08389B6
:100620008B43838170470000002202881D4B984253
:100630000ED01D4B98420BD0B0F1804F08D01B4B11
:10064000984205D01A4B984202D01A4B984204D1D6
:100650004FF68F731A404B881A43174B984207D0B6
:10066000164B984204D04FF6FF431A40CB881A43EA
:1006700002808B8883850B8803850A4B98420BD0B8
:10068000094B984208D00E4B984205D00D4B98422A
:1006900002D00D4B984201D10B7A0386012383824D
:1006A00070470000002C014000340140000400406D
:1006B00000080040000C0040001000400014004002
:1006C00000400140004401400048014000BFFEE7F7
:1006D00002E008C8121F08C1002AFAD1704770470B
:1006E000002001E001C1121F002AFBD17047000069
:1006F000FFF7DEFDFFF758FFFFF72EFF0DE007487D
:100700000068B0F57A7F08D10548C06880F008001D
:100710000349C860002001490860F0E7000000209C
:100720000010014044070008000000200400000001
:10073000D006000848070008040000200404000058
:08074000E006000800000000C3
:0400000508000131BD
:00000001FF
